:0300000002113EAC
:0C113E00787FE4F6D8FD75812102118550
:101687004C696768742E4F4E5F54696D653D2564DC
:031697000D0A0039
:101467008C0F41542B5459504529A80D0A008F0061
:1014770041542B5041495253544152540D0A008E46
:101487002841542B50414952534156450D0A008D6E
:0E1497001B41542B524553544F52450D0A0031
:1015F00012160712172D1216D1121510120EE01224
:071600000DFE1212C780F875
:10160700E4F592F591F5B2F5B17836F2783DF20846
:07161700F278957464F222E1
:100EE0001215BC783BEEF208EFF27BFF7A16798799
:100EF00078A0EEF208EFF21207E1783CE22401F26A
:100F000018E23400F27F0A7E00121634783CE26464
:100F100004700218E270667A00791B120F87783C21
:100F2000E224FEF218E234FFF2783B08E2FF24FFED
:100F3000F218E2FE34FFF2EF4E602F7A00790F12C2
:100F40000F8778937403F2087478F27BFE7A007945
:100F500000120FD37FF47E01121634E47893F20866
:100F6000F27FF47E0112163480BFE4783BF208F27F
:100F70007F107E27121634120F94120F94783BE2E2
:100F8000FE08E2FF0216AD7BFE120FD37FF47E0156
:100F9000121634227BFE7A007928120FD37F0A7E44
:050FA0000012163422CE
:03001300021000D8
:10100000C0E0C0F0C083C08263A201C083C082C0C0
:10101000D075D01878497401F2087404F27836E279
:10102000607A08E2FE08E2FF08EEF2FE08EFF2D373
:1010300094DCEE9400400718E4F20874DCF278398E
:10104000E2FF08E27893CFF208EFF27837E2FE0889
:10105000E2FF7843EEF2FE08EFF2FFFDAC1EE41271
:1010600002697B667A6679A6783F12015E783F1244
:101070000642E4FFFE7D807C40783FE2FB08E2F917
:1010800008E2FA08E2CBF812006D1202A27847EEED
:10109000F208EFF27845E4F2087402F2D0D0D08280
:0E10A000D08363A201D082D083D0F0D0E032A2
:1014C4007847E2FE08E2FF08E2FC08E2FDC39FEC75
:1014D4009E50107845E2FE08E2FFED9FEC9E40032B
:0614E400C2B422D2B422C2
:03000B00020009E7
:0100090032C4
:0300030002000AEE
:01000A0032C3
:07172D00D288D2A8D2AF223E
:10164A00438901D28A300006D2AAD2A98004C2AA4A
:05165A00C2A9D2AF227D
:1013A200784BEEF208EFF218E2F5C308E2F5C42238
:1013B2007BFE78A9E4F2087402F22278ACE22401FE
:1013C200F218E23400F222E22FFF18E23EFED3EFDF
:1013D2009400EE940222FFE2FC08E2FDC32278AB05
:1013E200E2FE08E2FFC3EE94022278A9E2FE08E2DE
:1013F200FF78A5E22F2275C65A75C6A522AD07ACA5
:0714020006ECF2EF08F222F4
:1014090078A1EBF208EAF208E9F2789FEEF208EF28
:01141900F2E0
:10141A0078A51213C940037F0022E478A6F208F2E5
:10142A0078A4E2FE08E2081213D89FEC9E502B78AB
:10143A00A0E22DFF18E23CFE12161E78A1E2FB087C
:10144A00E2FA08E2F978A6E2FC08E2F5828C83EF78
:0C145A001205BD78A71213BF80C67F01E9
:011466002263
:100D0F0078A6EBF208EAF208E9F278A4EEF208EF1F
:010D1F00F2E1
:100D200078AA1213C940037F00227F007E02120DB1
:100D3000F41213E0501A12161E78ADEFF2FD18E20D
:100D40002400FF18E23402FE12165F1213BD80E188
:100D5000E4FFFE120DF478A4E2FE08E278AB121371
:100D6000D89FEC9E5009E42DFFEC120DD380E7785C
:100D7000A4E2FF08E278ABCFF208EFF21213ECFF27
:100D800018E23EFEC378ACE29F18E29E5029E2FED4
:100D900008E2FF78A41213D9EF9DFDEE9CFC08E257
:100DA000FB08E2FA08E2F98D828C8312057EFD12BF
:100DB000165F1213BD80C51213EC79ACF318E23E36
:100DC00019F31213E05009E42FFFEE120DD380F255
:020DD0007F01A1
:100DD200223402FE12161E78ADEFF2FD78ABE2FE6F
:100DE20008E2FF12165F78ACE22401F218E2340046
:0C0DF200F2221216E3E478ABF208F222C1
:10161E00E4F5C275C78275C5011213A21213F80044
:06162E00121701AFC222F9
:10165F0075C78275C5021213A2AF058FC21213F898
:04166F00000217015D
:1016E30075C78275C5031213A21213F800021701FE
:0C170100E4F5C7F5C5F5C6F5C3F5C42234
:10169A0078A21213FF7A0079A21213B27F067E0093
:0316AA00020D0F1F
:1015A0007BFE7A00799D78A41213B67F067E001226
:0B15B0001409789DE2FE08E2FDEDFF4B
:0115BB00220D
:1016AD0078A21213FF7A0079A21213B2FF7E000204
:0216BD000D0F0F
:1015BC007BFE7A00799D78A41213B6FF7E0012147C
:0A15CC0009789DE2FE08E2FDEDFF44
:0115D60022F2
:1014A500817A00817600819000817B0081770081BF
:0514B5009100814D00D3
:100FA50090000A789FE2FB08E2FA08E2F902057E62
:100FB500E204F2E2C394147480948022E2FB08E216
:0E0FC500FA08E2F90205657BFE1214EAEF223B
:10155B007890120FB840037F0022787AE2247CF84F
:10156B00EFF2787A120FB54002E4F27890E204F2CF
:03157B007F0122CB
:1014EA007890E27002FF22C2AC7876E2247CF8E2BD
:1014FA001205AB7876120FB54002E4F27890E21446
:06150A00F2D2AC7F0122C9
:100026007891120FB840037F0022C2AC787BE2249D
:1000360062F8EFF2787B120FB54002E4F27891E2B3
:0E00460004F2784DE27002D299D2AC7F012212
:10157E007891E27002FF227877E22462F8E2120597
:10158E00AB7877120FB54002E4F27891E214F27F55
:02159E00012228
:0D001600AE07AF06120026EF60F8AF06221D
:0D0054007A00799D120FCC60F7789DE2FFD5
:01006100227C
:0B170D00AE07AF06120026EF60F822C6
:100FD300789DEBF208EAF208E9F2789D120FC160FE
:100FE3001A789DE2FB0808E2F92401F218E2FA34C8
:0C0FF30000F2120565FF12170D80DF22CE
:0D16F3007A00799D120FCC60F7789DE2FF20
:0117000022C6
:030006000214EAF7
:10151000759850438E01438E0475D7E075D6FE430F
:101520008E10D2ACD29CC29FD29EC299121536E4C4
:061530007878F208F222B7
:0300230002124C7A
:10124C00C0E0C083C08263A201C083C082C0D075DD
:0C125C00D000C000C001C002C003C007E9
:1012680030981FC29878B4E599F2E2FF12155B78BE
:1012780079E22401F218E23400F2783DE4F20874CD
:1012880028F2309920C2997BFE7A0079B412157E33
:10129800EF6401700C78B4E2F599784D7401F2802E
:0512A80004784DE4F2A2
:1012AD00D007D003D002D001D000D0D0D082D083CF
:0A12BD0063A201D082D083D0E0329A
:10153600E4FF6020120016120054E4FF12170D7B20
:10154600007A007900120FD31216F37B007A007925
:041556000012000679
:01155A00226E
:1016BF0012056564417005ED641470037F00227F8D
:0216CF000122F6
:100BED00789FEBF208EAF208E9F2789F120FC164E0
:100BFD00416002A10E90000112057E64546002A1B5
:100C0D000E90000212057E642B6002A10E9000036F
:100C1D0012057E64526002A10E900004120FA864AA
:100C2D00536002A10E90000512057E64506002A172
:100C3D000E90000612057E64436002A10E9000071F
:100C4D0012057E64036002A10E120FA56026783690
:100C5D00E27021D20012164AE4F590783604F2E4DF
:100C6D00783BF208F2120FA52480783AF2E434FFB3
:100C7D0018F28024120FA570327836E2602DC20072
:100C8D0012164AE4F5907836F2783BF208F278398C
:100C9D00E2FE08E2FF12169A7F327E0012163478B9
:100CAD003BE2FE08E2FF1216AD8044120FA5FF7E57
:100CBD0000C39401748094804035D3EF947F748089
:100CCD009480502B7836E26401702490000A12054E
:100CDD007E25E0FDEE33FC1202697BF67A28795C05
:100CED00783F12015E1202A27839EEF208EFF27827
:100CFD0039E2FE08E2FFC374DD9F7838F2E49E18F6
:020D0D00F222D0
:1012C700E4789DF2783EE2700218E270657879E280
:1012D700700218E2605C7BFE7A00799E1214EAEFD6
:1012E7006017789D120FB8501008E2FF18E2FE044D
:1012F700F2744E2EF8EFF280DD7BFE7A00794E789D
:101307009DE2FD1216BFEF6003120BEDE4FD789D21
:10131700E2FFEDC39F5012744E2DF8E2FF12170D36
:10132700744E2DF8E4F20D80E5E4789DF27878F2BA
:0213370008F2BA
:011339002291
:0A1723003F065B4F666D7D077F6F88
:1015D700D2B57C037DE87893E2FE08E2FF0205DFDF
:0915E700CFCDCFCECCCE0205DF42
:10133A0078B57C007DFE7BFF7A1779237E007F0AD1
:10134A001207597892E214601414602B2402703B3D
:10135A00C2B7D2B61215D77E007F648012D2B7C246
:10136A00B61215D77E007F641215E77E007F0A1237
:10137A0015E774B52F8010D2B7D2B6C2B57C007DFE
:10138A000A1215DD74B52DF8E2F5907892E204F2AE
:07139A0075F00384E5F0F299
:0113A1002229
:10163400EF4E60117D0B7C9FDCFEDDFCEF1F700123
:051644001E144E70EFC2
:01164900227E
:0B17180008E224FFF218E234FFF22286
:030063000211CABD
:1011CA00C0E0C0F0C083C08263A201C083C082C0F5
:1011DA00D075D000C000C001C002C003C004C00561
:1011EA00C006C007D3784AE2940018E2940040038C
:1011FA001217181214C47895E214F2E27022746479
:10120A00F212133AD3783EE2940018E294004003B3
:10121A001217187896E214F2E27005740AF2D209EB
:10122A00D007D006D005D004D003D002D001D00018
:10123A00D0D0D082D08363A201D082D083D0F0D024
:02124A00E03290
:1016D100438E0475D79175D6FF438E1043AF04D264
:0216E100AF2236
:0914BA00819800819900819A00DB
:10167300F218E23400F2D308E222F218E234FFF265
:04168300C308E22294
:1010AE00E4FFFE20B2010F20CC04EF4402FF20CD5E
:1010BE0004EF4404FFEF60567898E26F704A08E23E
:1010CE0004F2E2FDC3941E748094805012789BE269
:1010DE00FC131354017008EC4402F27897EFF2C33C
:1010EE00ED941E74809480401F789BE24404F218A5
:1010FE00E2FD04F2ED64027006EF4480FE8004EF20
:10110E004440FE78997419F27898EFF2801F789B1C
:10111E00E230E10720E2047897E2FE789BE254FD8C
:0F112E00F254FBF2E47899F208F27898F2AF06E7
:01113D00228F
:100DFE00200902C1DFC2091210AE789CEFF224FE68
:100E0E00606124FE607924827002C1A824FE700203
:100E1E00C1C424836002C1DF7836E26019E4F2C2F5
:100E2E000012164AE47893F208F27839E2FE08E2EC
:100E3E00FF12169A802278367401F21215A07839B4
:100E4E00EEF208EFF27893EEF208EFF27837EEF268
:100E5E0008EFF2D20012164AE4783BF208F2FFFED7
:100E6E000216AD7836E260697838E2240212167303
:100E7E0094DC18E294004059E4F20874DCF2227813
:100E8E0036E2604D7838E224FE12167D940218E2A6
:100E9E009400503DE4F20804F2227836E260327893
:100EAE0038E2241412167394C818E294004022E417
:100EBE00F20874C8F2227836E260167838E224EC32
:100ECE0012167D941418E294005006E4F20874147D
:020EDE00F222FE
:1000660002030EE86480F8E933E83360110460F0B7
:10007600ED33EC337009E8FCE9FDEAFEEBFF220400
:1000860060DED3EB9FEA9EE99DE8C2E78CF0C2F7FB
:1000960095F0400CE8CCF8E9CDF9EACEFAEBCFFBC7
:1000A6001202D985D0F05804700320D5B3E8047045
:1000B600075002B2D502031892D5EC0460F7E4CCDF
:1000C600C0E0C398F8603B94186008400DD0E0FB90
:1000D6000202F0E4FBFAC9FC8028E830E406E4C931
:1000E600FBE4CAFCE830E305E4C9CACBFCE85407E4
:1000F6006010F8C3E913F9EA13FAEB13FBEC13FCEF
:10010600D8F130F52FC3E49CFCEF9BFFEE9AFEED91
:1001160099FDD0E0FBEF4E4D4C701222DB0302033B
:1001260015EC2CFCEF33FFEE33FEED33FDED30E73F
:10013600EB0202F0EF2BFFEE3AFEED39FDD0E0FBCD
:1001460050130BBB0003020318ED13FDEE13FEEF75
:0801560013FFEC13FC0202F0A0
:10015E00EC4D6011E8497017ED33EC3304600DE49B
:10016E00FCFFFEFD22E933E8330470F802030E12A1
:10017E0002D958046009E4CC2481500628500902A3
:10018E000318284003020315C0E0EB4A7044B980FF
:10019E0006D0E0FB020304EF4E701CBD8008EBFF9F
:1001AE00EAFEE9FD80EBE98DF0A4FEE5F0020247E0
:1001BE00E9CDF9EAFEEBFFEF89F0A4FCE5F0CE897C
:1001CE00F0A42EFFE435F0CD89F0A42DFEE435F039
:1001DE008067EF4E7005BD80D780C3EF8BF0A4AC67
:1001EE00F0EE8BF0A42CFCE435F0F8EF8AF0A42CA2
:1001FE00E5F038FCE433CB8DF0A42CFCE5F03BF8B5
:10020E00EE8AF0A42CFCE5F038F8E433CF89F0A4A4
:10021E002CFCE5F038CF3400CE89F0A42FFFE5F0AA
:10022E003EFEE433C98DF0A42EFEE5F039CD8AF002
:10023E00A42FFFE5F03EFEE43DFD33D0E0FB50077A
:10024E000BBB000F020318EC2CFCEF33FFEE33FE5A
:06025E00ED33FD0202F089
:1002640075F020800E75F010800575F0087D007E15
:10027400007F003392D530D503120634EC3340109E
:10028400EF33FFEE33FEED33FDEC33FCD5F0ED221E
:0E029400E5F0247EA2D513CC92E7CDCEFF225A
:1002A200EDD2E7CD33EC3392D524814006E4FFFE54
:1002B200FDFC22FCE4CFCECDCC24E0501174FF80B3
:1002C200EDC3CC13CCCD13CDCE13CECF13CF047050
:0702D200F030D5DE02063416
:10077F00E50824A0F8E2050822789D30070278A04A
:10078F00E475F00112064E0205652000EB7F2ED2B4
:10079F00008018EF540F2490D43440D4FF30040B52
:1007AF00EF24BFB41A0050032461FFE5096002155E
:1007BF0009050CE50C7002050B30070D789DE475EB
:1007CF00F00112064EEF0205AB0200167403D207BA
:1007DF008003E4C207F508789D12065EE4F509F57B
:1007EF000BF50CE50960077F201207BA80F5750A33
:1007FF00FFC201C200C202C203C205C206C2081272
:10080F000788FF700D3007057F001207CBAF0CAEC6
:10081F000B22B4255FC2D5C204120788FF24D0B4BF
:10082F000A00501A75F00A780930D50508B6FF018D
:10083F0006C6A426F620D5047002D20380D924CF91
:10084F00B41A00EF5004C2E5D204020AB7D20180F5
:10085F00C6D20080C0D20280BCD2D580BAD2058069
:10086F00B47F201207BA2002077401B5090040F1C6
:10087F0012077FFF1207BA0207F2D208D20680953D
:10088F0012077FFB12077FFA12077FF94A4B700698
:10089F0079AE7A0B7BFF20022EE509602A7E008E4F
:1008AF008275830012057E60060EEE650A70F0C237
:1008BF00D5EBC0E0EAC0E0E9C0E0EE120B17D0E0E4
:1008CF00F9D0E0FAD0E0FB120565FF60AAEBC0E0BB
:1008DF00EAC0E0E9C0E01207BAD0E02401F9D0E0A5
:1008EF003400FAD0E0FBE50A0460DCD50AD9808732
:1008FF00D20280A2120AFA60F7E50A70010412030D
:10090F0023A90A600DE50A600914F50A120BA1EF7D
:10091F0060F3EA30E702F404C3995077EAF4250A4A
:10092F000430E701E404F50A800D120AFA60C1EA07
:10093F00050A250A120323EA78B3F230E701E4250A
:10094F000A04D50A0420050114120B17E4C0E012A3
:10095F000BA178B3E2601320E70714F21207A2800D
:10096F002204F2D0E014C0E07F001207A2E50A6073
:10097F0007120799150A800B300503120799D0E06B
:10098F000207F2D0E00480C5120AFA60A0E50A045B
:10099F0012032378B3EAF2E50A200502600104246A
:0C09AF0004120B1774FF04C0E0120BA12F
:1009BB001207A2E50A2005026003120799D0E0B5E1
:1009CB000AE87F451207AC78B3E27F2B30E7047F50
:1009DB002DF404C0E01207BAD0E075F00A84C0F021
:1009EB001207A3D0E01207A30207F2791080027955
:1009FB0008C206C2088008D2D5790A8004790AC2D7
:100A0B00D5E50A047002F50AE4FAFDFEFF12077F32
:100A1B00FC7B0820011312077FFD7B1030000A12AC
:100A2B00077FFE12077FFF7B20EC3382D592D550D8
:100A3B0013C3E43000069FFFE49EFEE42001039DF8
:100A4B00FDE49CFCE4CBF8C201EC700CCFCECDCC1A
:100A5B00E824F8F870F38017C3EF33FFEE33FEEDA5
:100A6B0033FDEC33FCEB33FB994002FB0FD8E9EB86
:100A7B00300105F8D0E0C448B201C0E00AEC4D4E9D
:100A8B004F78207B0070C2EAB50A0040BCC0E01270
:100A9B000B19D0F0D0E0200104C4C0E0C4B201C0F7
:100AAB00F01207A3D0F0D5F0EB0207F2120667089D
:100ABB008F5309F65808604C085C4209FA4F0A023A
:100ACB00440A02490875430A0855093946099745EE
:100ADB000903470BCE5008642D08682E088B2B0892
:100AEB006C230889200BB72A08244800000883E5EB
:100AFB000AB4FF03750A0612077FFC12077FFD126B
:100B0B00077FFE12077FFF78AC020352790AA2D54A
:100B1B00200314300509B910020404B9080104A21A
:100B2B00D52006025001042002689202B50900503C
:100B3B0034C0E07F203003197F30A20272067205A9
:100B4B00500F120B70C202C206C205C2087F308062
:100B5B000F300503E9C0E01207BA300503D0E0F906
:100B6B00D0E0B509CC3005177F30B9100C1207BA9D
:100B7B007F583004077F788003B908031207BA3017
:100B8B0002057F2D0207BA7F202008F87F2B200655
:100B9B00F322920280CF7F00B40700500524ACF8FB
:100BAB00E2FF22286E756C6C2900D20112077F3090
:100BBB0001F8C201780930D50108F60208242D503E
:100BCB0043495812077F2403B405004001E4900BFE
:100BDB00C9931207AB743A1207ABD203750904021F
:020BEB0009F609
:1002D900E9D2E7C933E833F892D5EDD2E7CD33EC6B
:0702E90033FC5002B2D522E4
:1002F000EC30E7100FBF000C0EBE00080DBD00046F
:100300000BEB6014A2D5EB13FCED92E7FD2274FF1A
:10031000FCFDFEFF22E480F8A2D574FF13FC7D8073
:03032000E480EF87
:10032300F920E72824F950037907E4F42402FB18A1
:10033300DBFDE224FB5014E9600DE4F218E204F261
:0F034300B40A08E4F2D9F57401F20A22C2D522F5
:10035200ED33EC3392D5FA602AB4FF33EDC2E77B7A
:10036200FF60067A037977E4227A03798020D50444
:100372007A03797B224E614E002B494E46002D496D
:100382004E4600E47A08F208DAFC7B00740722E8A1
:10039200C0E0ECC0E0EDC0E0EEC0E0EFC0E0EA7526
:1003A200F010A4CAABF075F04DA42BFBE435F0FCC1
:1003B200EA2410FAEB34C5FBEC34D9FCEDC2E7FFBA
:1003C20075F056A4F42411C5F0F434C58FF0A42AB4
:1003D200E5F03BE43CF220E714120525D0E0FFD023
:1003E200E0FED0E0FDD0E0FC1204588014F40412C8
:1003F2000525D0E0FFD0E0FED0E0FDD0E0FC120108
:100402005ED0E0F8E2FAEDD2E7CD33EC332482FBA2
:10041200E4C3CF33CFCE33CECD33CD33DBF37B0743
:1004220075F00A846004F2081B0AE5F0F2088FF006
:10043200740AA4FFACF08EF0740AA42CFEACF05047
:10044200010C8DF0740AA42CFDE435F0F208DBDE19
:030452007407220A
:10045500020318EC5D046005E85904700302030EFD
:100465001202D9580460F6EC4860F2EC7004FDFE07
:10047500FF22C860DB2481C85009C398600250067A
:100485000203159850CAF582E9294B4A7005AB82DB
:1004950002030475F0007C1A7880C3EF9BEE9AED99
:1004A50099400DC3EF9BFFEE9AFEED99FDE842F0F2
:1004B500DC23ACF0D0E0FFD0E0FED0E0FDAB822045
:1004C500E7101BEB60BAEC2CFCEF33FFEE33FEEDCF
:1004D50033FD0202F0E803F830E705C0F075F000DF
:1004E500EF2FFFEE33FEED33FD40B830E7C280AAB3
:1004F5003F8000004120000042C80000447A00000F
:10050500461C400047C35000497424004B18968090
:100515004CBEBC205A0E1BCA6753C21C749DC5AE87
:10052500FB60065407601C2323120553EB54386007
:100535000912053F12054E12015EECF8EDF9EEFACF
:10054500EFCB22EB12054E80F1543803241C9004A6
:10055500F5FE93FC0EEE93FD0EEE930ECE93FF2269
:10114A000215F0E493A3F8E493A34003F68001F2B6
:10115A0008DFF48029E493A3F85407240CC8C333A6
:10116A00C4540F4420C8834004F456800146F6DF75
:10117A00E4800B0102040810204080901467E47E8A
:10118A00019360BCA3FF543F30E509541FFEE4936A
:10119A00A360010ECF54C025E060A840B8E493A331
:1011AA00FAE493A3F8E493A3C8C582C8CAC583CA5C
:1011BA00F0A3C8C582C8CAC583CADFE9DEE780BE14
:0114C3000028
:10056500BB010689828A83E0225002E722BBFE0294
:09057500E32289828A83E49322C7
:10057E00BB010CE58229F582E5833AF583E0225032
:10058E0006E92582F8E622BBFE06E92582F8E2227C
:0D059E00E58229F582E5833AF583E4932296
:1005AB00BB010689828A83F0225002F722BBFE012F
:0205BB00F32229
:1005BD00F8BB010DE58229F582E5833AF583E8F074
:1005CD00225006E92582C8F622BBFE05E92582C820
:0205DD00F22208
:1005DF00BC000BBE0029EF8DF084FFADF022E4CC00
:1005EF00F875F008EF2FFFEE33FEEC33FCEE9DECC9
:1005FF00984005FCEE9DFE0FD5F0E9E4CEFD22ED0F
:10060F00F8F5F0EE8420D21CFEADF075F008EF2F58
:10061F00FFED33FD4007985006D5F0F222C398FD49
:05062F000FD5F0EA22E6
:0E063400C3E49FFFE49EFEE49DFDE49CFC22D7
:0C064200ECF208EDF208EEF208EFF222F4
:10064E00FAE2FB0808E2F925F0F218E2CA3AF222C1
:09065E00EBF208EAF208E9F222CD
:10066700D083D082F8E4937012740193700DA3A322
:1006770093F8740193F5828883E473740293686036
:06068700EFA3A3A380DF36
:10068D00E709F608DFFA8046E709F208DFFA803E4F
:10069D0088828C83E709F0A3DFFA8032E309F6083C
:1006AD00DFFA8076E309F208DFFA806E88828C83A8
:1006BD00E309F0A3DFFA806289828A83E0A3F6085A
:1006CD00DFFA805689828A83E0A3F208DFFA804A36
:1006DD0080D280FA80C680D4806580F2803180100F
:1006ED0080A680EA809A80A880DA80E280CA803174
:1006FD0089828A8363A20188828C8363A201E49339
:10070D00A363A201F0A363A201DFF3DEF1800B89E5
:10071D00828A83E493A3F608DFF9ECFAA9F0EDFBE6
:10072D002289828A8363A20188828C8363A201E07D
:10073D00A363A201F0A363A201DFF4DEF280DB89E3
:10074D00828A83E493A3F208DFF980CE88F0EF600C
:10075D00010E4E60C588F0ED2402B4040050BBF5C7
:10076D0082EB2402B4040050B1232345822390066A
:02077D00DD732A
:00000001FF
